:100000000C9434000C9451000C9451000C94510049
:100010000C9451000C9451000C9451000C9451001C
:100020000C9451000C9451000C9451000C9451000C
:100030000C9451000C9451000C9451000C945100FC
:100040000C9451000C9451000C9451000C945100EC
:100050000C9451000C9451000C9451000C945100DC
:100060000C9451000C94510011241FBECFEFD8E026
:10007000DEBFCDBF11E0A0E0B1E0E0EDF2E002C0F4
:1000800005900D92A231B107D9F721E0A2E1B1E0CC
:1000900001C01D92A431B207E1F70E9453000C94F5
:1000A00066010C940000219A82E88093800089E127
:1000B000809381008FE396E0909387008093860081
:1000C00080E595E090938900809388000E947400F9
:1000D000CCE2D1E00E9485000E941F0180E20E94D4
:1000E000B5002197B9F7FFCF88E090E09093C50065
:1000F0008093C400E1ECF0E0808188618083E2ECD1
:10010000F0E08081866080830895E0ECF0E08081FB
:100110008823ECF78091C6008F3719F08D3019F0E5
:10012000089588E008958AE0FBCF8B3171F09091BB
:100130001301992371F0913071F0109213018154E1
:1001400091E0843030F090E004C081E080931301AE
:1001500091E0892F08958B3521F01092130190E0E2
:10016000F8CF82E080931301F4CFE0ECF0E09081CF
:1001700095FFFDCF8093C600883029F08A3089F042
:10018000109212010895809112018111F9CF80E23D
:100190000E94B50081E08093120188E00E94B500C2
:1001A000EFCF8DE00E94B500EBCFAF92BF92CF9220
:1001B000DF92EF92FF920F931F93CF93DF935C0137
:1001C0006B0110E000E07B0181E0E81AF10820C03B
:1001D00001151105E9F088E00E94B50001501109F0
:1001E00017C00C151D0568F0D1E08D2FDF91CF9160
:1001F0001F910F91FF90EF90DF90CF90BF90AF9045
:1002000008950A0D1B1DF8011082EFCF0F5F1F4FDD
:100210000E948500C82F0E949500D82F8111F8CF29
:10022000C830B1F28C2F0E94B500CA30D1F20E1541
:100230001F0560F7F501E00FF11FC083E7CF1F93A3
:10024000CF93DF93CDB7DEB761970FB6F894DEBFDB
:100250000FBECDBF182F81E1E0E0F1E0DE01119685
:1002600001900D928A95E1F7E12FE295EF7081E020
:1002700090E08C0F9D1F8E0F911DFC0180810E94CC
:10028000B500E12FEF7081E090E08C0F9D1F8E0F85
:10029000911DFC0180810E94B50061960FB6F89413
:1002A000DEBF0FBECDBFDF91CF911F910895CF93D9
:1002B000DF93EC018881882331F021960E94B500FC
:1002C00089918111FBCFDF91CF910895F894FFCFF1
:1002D000303132333435363738394142434445467C
:0202E00000001C
:00000001FF
